{
	"condicionales.sol": {
		"Condicionales": {
			"abi": [
				{
					"inputs": [],
					"name": "validateAmount",
					"outputs": [
						{
							"internalType": "bool",
							"name": "",
							"type": "bool"
						}
					],
					"stateMutability": "view",
					"type": "function"
				}
			],
			"devdoc": {
				"kind": "dev",
				"methods": {},
				"version": 1
			},
			"evm": {
				"assembly": "    /* \"condicionales.sol\":29:257  contract Condicionales {... */\n  mstore(0x40, 0x80)\n    /* \"condicionales.sol\":76:79  300 */\n  0x012c\n    /* \"condicionales.sol\":59:79  uint billetera = 300 */\n  0x00\n  sstore\n    /* \"condicionales.sol\":29:257  contract Condicionales {... */\n  callvalue\n  dup1\n  iszero\n  tag_1\n  jumpi\n  0x00\n  dup1\n  revert\ntag_1:\n  pop\n  dataSize(sub_0)\n  dup1\n  dataOffset(sub_0)\n  0x00\n  codecopy\n  0x00\n  return\nstop\n\nsub_0: assembly {\n        /* \"condicionales.sol\":29:257  contract Condicionales {... */\n      mstore(0x40, 0x80)\n      callvalue\n      dup1\n      iszero\n      tag_1\n      jumpi\n      0x00\n      dup1\n      revert\n    tag_1:\n      pop\n      jumpi(tag_2, lt(calldatasize, 0x04))\n      shr(0xe0, calldataload(0x00))\n      dup1\n      0x7766aaf7\n      eq\n      tag_3\n      jumpi\n    tag_2:\n      0x00\n      dup1\n      revert\n        /* \"condicionales.sol\":84:254  function validateAmount() public view returns(bool){... */\n    tag_3:\n      tag_4\n      tag_5\n      jump\t// in\n    tag_4:\n      mload(0x40)\n      tag_6\n      swap2\n      swap1\n      tag_7\n      jump\t// in\n    tag_6:\n      mload(0x40)\n      dup1\n      swap2\n      sub\n      swap1\n      return\n    tag_5:\n        /* \"condicionales.sol\":130:134  bool */\n      0x00\n        /* \"condicionales.sol\":162:165  300 */\n      0x012c\n        /* \"condicionales.sol\":149:158  billetera */\n      sload(0x00)\n        /* \"condicionales.sol\":149:165  billetera == 300 */\n      sub\n        /* \"condicionales.sol\":146:247  if(billetera == 300){... */\n      tag_9\n      jumpi\n        /* \"condicionales.sol\":188:192  true */\n      0x01\n        /* \"condicionales.sol\":181:192  return true */\n      swap1\n      pop\n      jump(tag_8)\n        /* \"condicionales.sol\":146:247  if(billetera == 300){... */\n    tag_9:\n        /* \"condicionales.sol\":230:235  false */\n      0x00\n        /* \"condicionales.sol\":223:235  return false */\n      swap1\n      pop\n        /* \"condicionales.sol\":84:254  function validateAmount() public view returns(bool){... */\n    tag_8:\n      swap1\n      jump\t// out\n        /* \"#utility.yul\":7:97   */\n    tag_11:\n        /* \"#utility.yul\":41:48   */\n      0x00\n        /* \"#utility.yul\":84:89   */\n      dup2\n        /* \"#utility.yul\":77:90   */\n      iszero\n        /* \"#utility.yul\":70:91   */\n      iszero\n        /* \"#utility.yul\":59:91   */\n      swap1\n      pop\n        /* \"#utility.yul\":7:97   */\n      swap2\n      swap1\n      pop\n      jump\t// out\n        /* \"#utility.yul\":103:212   */\n    tag_12:\n        /* \"#utility.yul\":184:205   */\n      tag_16\n        /* \"#utility.yul\":199:204   */\n      dup2\n        /* \"#utility.yul\":184:205   */\n      tag_11\n      jump\t// in\n    tag_16:\n        /* \"#utility.yul\":179:182   */\n      dup3\n        /* \"#utility.yul\":172:206   */\n      mstore\n        /* \"#utility.yul\":103:212   */\n      pop\n      pop\n      jump\t// out\n        /* \"#utility.yul\":218:428   */\n    tag_7:\n        /* \"#utility.yul\":305:309   */\n      0x00\n        /* \"#utility.yul\":343:345   */\n      0x20\n        /* \"#utility.yul\":332:341   */\n      dup3\n        /* \"#utility.yul\":328:346   */\n      add\n        /* \"#utility.yul\":320:346   */\n      swap1\n      pop\n        /* \"#utility.yul\":356:421   */\n      tag_18\n        /* \"#utility.yul\":418:419   */\n      0x00\n        /* \"#utility.yul\":407:416   */\n      dup4\n        /* \"#utility.yul\":403:420   */\n      add\n        /* \"#utility.yul\":394:400   */\n      dup5\n        /* \"#utility.yul\":356:421   */\n      tag_12\n      jump\t// in\n    tag_18:\n        /* \"#utility.yul\":218:428   */\n      swap3\n      swap2\n      pop\n      pop\n      jump\t// out\n\n    auxdata: 0xa26469706673582212201c5e008f4098b668a133d20b60f712628d794b797aed722e5ad783b69410e49c64736f6c63430008120033\n}\n",
				"bytecode": {
					"linkReferences": {},
					"object": "608060405261012c60005534801561001657600080fd5b5060cb806100256000396000f3fe6080604052348015600f57600080fd5b506004361060285760003560e01c80637766aaf714602d575b600080fd5b60336047565b604051603e9190607c565b60405180910390f35b600061012c60005403605b57600190506060565b600090505b90565b60008115159050919050565b6076816063565b82525050565b6000602082019050608f6000830184606f565b9291505056fea26469706673582212201c5e008f4098b668a133d20b60f712628d794b797aed722e5ad783b69410e49c64736f6c63430008120033",
					"opcodes": "PUSH1 0x80 PUSH1 0x40 MSTORE PUSH2 0x12C PUSH1 0x0 SSTORE CALLVALUE DUP1 ISZERO PUSH2 0x16 JUMPI PUSH1 0x0 DUP1 REVERT JUMPDEST POP PUSH1 0xCB DUP1 PUSH2 0x25 PUSH1 0x0 CODECOPY PUSH1 0x0 RETURN INVALID PUSH1 0x80 PUSH1 0x40 MSTORE CALLVALUE DUP1 ISZERO PUSH1 0xF JUMPI PUSH1 0x0 DUP1 REVERT JUMPDEST POP PUSH1 0x4 CALLDATASIZE LT PUSH1 0x28 JUMPI PUSH1 0x0 CALLDATALOAD PUSH1 0xE0 SHR DUP1 PUSH4 0x7766AAF7 EQ PUSH1 0x2D JUMPI JUMPDEST PUSH1 0x0 DUP1 REVERT JUMPDEST PUSH1 0x33 PUSH1 0x47 JUMP JUMPDEST PUSH1 0x40 MLOAD PUSH1 0x3E SWAP2 SWAP1 PUSH1 0x7C JUMP JUMPDEST PUSH1 0x40 MLOAD DUP1 SWAP2 SUB SWAP1 RETURN JUMPDEST PUSH1 0x0 PUSH2 0x12C PUSH1 0x0 SLOAD SUB PUSH1 0x5B JUMPI PUSH1 0x1 SWAP1 POP PUSH1 0x60 JUMP JUMPDEST PUSH1 0x0 SWAP1 POP JUMPDEST SWAP1 JUMP JUMPDEST PUSH1 0x0 DUP2 ISZERO ISZERO SWAP1 POP SWAP2 SWAP1 POP JUMP JUMPDEST PUSH1 0x76 DUP2 PUSH1 0x63 JUMP JUMPDEST DUP3 MSTORE POP POP JUMP JUMPDEST PUSH1 0x0 PUSH1 0x20 DUP3 ADD SWAP1 POP PUSH1 0x8F PUSH1 0x0 DUP4 ADD DUP5 PUSH1 0x6F JUMP JUMPDEST SWAP3 SWAP2 POP POP JUMP INVALID LOG2 PUSH5 0x6970667358 0x22 SLT KECCAK256 SHR 0x5E STOP DUP16 BLOCKHASH SWAP9 0xB6 PUSH9 0xA133D20B60F712628D PUSH26 0x4B797AED722E5AD783B69410E49C64736F6C6343000812003300 "
				},
				"gasEstimates": {
					"creation": {
						"codeDepositCost": "40600",
						"executionCost": "22199",
						"totalCost": "62799"
					},
					"external": {
						"validateAmount()": "2455"
					}
				},
				"methodIdentifiers": {
					"validateAmount()": "7766aaf7"
				}
			},
			"storageLayout": {
				"storage": [
					{
						"astId": 4,
						"contract": "condicionales.sol:Condicionales",
						"label": "billetera",
						"offset": 0,
						"slot": "0",
						"type": "t_uint256"
					}
				],
				"types": {
					"t_uint256": {
						"encoding": "inplace",
						"label": "uint256",
						"numberOfBytes": "32"
					}
				}
			},
			"userdoc": {
				"kind": "user",
				"methods": {},
				"version": 1
			}
		}
	}
}