{
	"Structs.sol": {
		"Structs": {
			"abi": [
				{
					"inputs": [],
					"name": "bookInformation",
					"outputs": [
						{
							"internalType": "uint256",
							"name": "",
							"type": "uint256"
						}
					],
					"stateMutability": "view",
					"type": "function"
				},
				{
					"inputs": [],
					"name": "bookName",
					"outputs": [
						{
							"internalType": "string",
							"name": "",
							"type": "string"
						}
					],
					"stateMutability": "view",
					"type": "function"
				},
				{
					"inputs": [],
					"name": "setBook",
					"outputs": [],
					"stateMutability": "nonpayable",
					"type": "function"
				}
			],
			"devdoc": {
				"kind": "dev",
				"methods": {},
				"version": 1
			},
			"evm": {
				"assembly": "    /* \"Structs.sol\":29:594  contract Structs {... */\n  mstore(0x40, 0x80)\n  callvalue\n  dup1\n  iszero\n  tag_1\n  jumpi\n  0x00\n  dup1\n  revert\ntag_1:\n  pop\n  dataSize(sub_0)\n  dup1\n  dataOffset(sub_0)\n  0x00\n  codecopy\n  0x00\n  return\nstop\n\nsub_0: assembly {\n        /* \"Structs.sol\":29:594  contract Structs {... */\n      mstore(0x40, 0x80)\n      callvalue\n      dup1\n      iszero\n      tag_1\n      jumpi\n      0x00\n      dup1\n      revert\n    tag_1:\n      pop\n      jumpi(tag_2, lt(calldatasize, 0x04))\n      shr(0xe0, calldataload(0x00))\n      dup1\n      0x1d45f3bf\n      eq\n      tag_3\n      jumpi\n      dup1\n      0x4056814c\n      eq\n      tag_4\n      jumpi\n      dup1\n      0xd629546c\n      eq\n      tag_5\n      jumpi\n    tag_2:\n      0x00\n      dup1\n      revert\n        /* \"Structs.sol\":500:591  function bookName() public view returns(string memory){... */\n    tag_3:\n      tag_6\n      tag_7\n      jump\t// in\n    tag_6:\n      mload(0x40)\n      tag_8\n      swap2\n      swap1\n      tag_9\n      jump\t// in\n    tag_8:\n      mload(0x40)\n      dup1\n      swap2\n      sub\n      swap1\n      return\n        /* \"Structs.sol\":400:492  function bookInformation() public view returns(uint){... */\n    tag_4:\n      tag_10\n      tag_11\n      jump\t// in\n    tag_10:\n      mload(0x40)\n      tag_12\n      swap2\n      swap1\n      tag_13\n      jump\t// in\n    tag_12:\n      mload(0x40)\n      dup1\n      swap2\n      sub\n      swap1\n      return\n        /* \"Structs.sol\":194:359  function setBook() public {... */\n    tag_5:\n      tag_14\n      tag_15\n      jump\t// in\n    tag_14:\n      stop\n        /* \"Structs.sol\":500:591  function bookName() public view returns(string memory){... */\n    tag_7:\n        /* \"Structs.sol\":540:553  string memory */\n      0x60\n        /* \"Structs.sol\":572:577  libro */\n      0x00\n        /* \"Structs.sol\":572:583  libro.autor */\n      0x03\n      add\n        /* \"Structs.sol\":565:583  return libro.autor */\n      dup1\n      sload\n      tag_17\n      swap1\n      tag_18\n      jump\t// in\n    tag_17:\n      dup1\n      0x1f\n      add\n      0x20\n      dup1\n      swap2\n      div\n      mul\n      0x20\n      add\n      mload(0x40)\n      swap1\n      dup2\n      add\n      0x40\n      mstore\n      dup1\n      swap3\n      swap2\n      swap1\n      dup2\n      dup2\n      mstore\n      0x20\n      add\n      dup3\n      dup1\n      sload\n      tag_19\n      swap1\n      tag_18\n      jump\t// in\n    tag_19:\n      dup1\n      iszero\n      tag_20\n      jumpi\n      dup1\n      0x1f\n      lt\n      tag_21\n      jumpi\n      0x0100\n      dup1\n      dup4\n      sload\n      div\n      mul\n      dup4\n      mstore\n      swap2\n      0x20\n      add\n      swap2\n      jump(tag_20)\n    tag_21:\n      dup3\n      add\n      swap2\n      swap1\n      0x00\n      mstore\n      keccak256(0x00, 0x20)\n      swap1\n    tag_22:\n      dup2\n      sload\n      dup2\n      mstore\n      swap1\n      0x01\n      add\n      swap1\n      0x20\n      add\n      dup1\n      dup4\n      gt\n      tag_22\n      jumpi\n      dup3\n      swap1\n      sub\n      0x1f\n      and\n      dup3\n      add\n      swap2\n    tag_20:\n      pop\n      pop\n      pop\n      pop\n      pop\n      swap1\n      pop\n        /* \"Structs.sol\":500:591  function bookName() public view returns(string memory){... */\n      swap1\n      jump\t// out\n        /* \"Structs.sol\":400:492  function bookInformation() public view returns(uint){... */\n    tag_11:\n        /* \"Structs.sol\":447:451  uint */\n      0x00\n        /* \"Structs.sol\":470:475  libro */\n      dup1\n        /* \"Structs.sol\":470:484  libro.id_libro */\n      0x02\n      add\n      sload\n        /* \"Structs.sol\":463:484  return libro.id_libro */\n      swap1\n      pop\n        /* \"Structs.sol\":400:492  function bookInformation() public view returns(uint){... */\n      swap1\n      jump\t// out\n        /* \"Structs.sol\":194:359  function setBook() public {... */\n    tag_15:\n        /* \"Structs.sol\":293:351  Libro('Curso Solidity', 'Solidity', 1, 'Arturo Hernandez') */\n      mload(0x40)\n      dup1\n      0x80\n      add\n      0x40\n      mstore\n      dup1\n      mload(0x40)\n      dup1\n      0x40\n      add\n      0x40\n      mstore\n      dup1\n      0x0e\n      dup2\n      mstore\n      0x20\n      add\n      0x437572736f20536f6c6964697479000000000000000000000000000000000000\n      dup2\n      mstore\n      pop\n      dup2\n      mstore\n      0x20\n      add\n      mload(0x40)\n      dup1\n      0x40\n      add\n      0x40\n      mstore\n      dup1\n      0x08\n      dup2\n      mstore\n      0x20\n      add\n      0x536f6c6964697479000000000000000000000000000000000000000000000000\n      dup2\n      mstore\n      pop\n      dup2\n      mstore\n      0x20\n      add\n        /* \"Structs.sol\":329:330  1 */\n      0x01\n        /* \"Structs.sol\":293:351  Libro('Curso Solidity', 'Solidity', 1, 'Arturo Hernandez') */\n      dup2\n      mstore\n      0x20\n      add\n      mload(0x40)\n      dup1\n      0x40\n      add\n      0x40\n      mstore\n      dup1\n      0x10\n      dup2\n      mstore\n      0x20\n      add\n      0x41727475726f204865726e616e64657a00000000000000000000000000000000\n      dup2\n      mstore\n      pop\n      dup2\n      mstore\n      pop\n        /* \"Structs.sol\":285:290  libro */\n      0x00\n        /* \"Structs.sol\":285:351  libro = Libro('Curso Solidity', 'Solidity', 1, 'Arturo Hernandez') */\n      dup1\n      dup3\n      add\n      mload\n      dup2\n      0x00\n      add\n      swap1\n      dup2\n      tag_25\n      swap2\n      swap1\n      tag_26\n      jump\t// in\n    tag_25:\n      pop\n      0x20\n      dup3\n      add\n      mload\n      dup2\n      0x01\n      add\n      swap1\n      dup2\n      tag_27\n      swap2\n      swap1\n      tag_26\n      jump\t// in\n    tag_27:\n      pop\n      0x40\n      dup3\n      add\n      mload\n      dup2\n      0x02\n      add\n      sstore\n      0x60\n      dup3\n      add\n      mload\n      dup2\n      0x03\n      add\n      swap1\n      dup2\n      tag_28\n      swap2\n      swap1\n      tag_26\n      jump\t// in\n    tag_28:\n      pop\n      swap1\n      pop\n      pop\n        /* \"Structs.sol\":194:359  function setBook() public {... */\n      jump\t// out\n        /* \"#utility.yul\":7:106   */\n    tag_29:\n        /* \"#utility.yul\":59:65   */\n      0x00\n        /* \"#utility.yul\":93:98   */\n      dup2\n        /* \"#utility.yul\":87:99   */\n      mload\n        /* \"#utility.yul\":77:99   */\n      swap1\n      pop\n        /* \"#utility.yul\":7:106   */\n      swap2\n      swap1\n      pop\n      jump\t// out\n        /* \"#utility.yul\":112:281   */\n    tag_30:\n        /* \"#utility.yul\":196:207   */\n      0x00\n        /* \"#utility.yul\":230:236   */\n      dup3\n        /* \"#utility.yul\":225:228   */\n      dup3\n        /* \"#utility.yul\":218:237   */\n      mstore\n        /* \"#utility.yul\":270:274   */\n      0x20\n        /* \"#utility.yul\":265:268   */\n      dup3\n        /* \"#utility.yul\":261:275   */\n      add\n        /* \"#utility.yul\":246:275   */\n      swap1\n      pop\n        /* \"#utility.yul\":112:281   */\n      swap3\n      swap2\n      pop\n      pop\n      jump\t// out\n        /* \"#utility.yul\":287:533   */\n    tag_31:\n        /* \"#utility.yul\":368:369   */\n      0x00\n        /* \"#utility.yul\":378:491   */\n    tag_57:\n        /* \"#utility.yul\":392:398   */\n      dup4\n        /* \"#utility.yul\":389:390   */\n      dup2\n        /* \"#utility.yul\":386:399   */\n      lt\n        /* \"#utility.yul\":378:491   */\n      iszero\n      tag_59\n      jumpi\n        /* \"#utility.yul\":477:478   */\n      dup1\n        /* \"#utility.yul\":472:475   */\n      dup3\n        /* \"#utility.yul\":468:479   */\n      add\n        /* \"#utility.yul\":462:480   */\n      mload\n        /* \"#utility.yul\":458:459   */\n      dup2\n        /* \"#utility.yul\":453:456   */\n      dup5\n        /* \"#utility.yul\":449:460   */\n      add\n        /* \"#utility.yul\":442:481   */\n      mstore\n        /* \"#utility.yul\":414:416   */\n      0x20\n        /* \"#utility.yul\":411:412   */\n      dup2\n        /* \"#utility.yul\":407:417   */\n      add\n        /* \"#utility.yul\":402:417   */\n      swap1\n      pop\n        /* \"#utility.yul\":378:491   */\n      jump(tag_57)\n    tag_59:\n        /* \"#utility.yul\":525:526   */\n      0x00\n        /* \"#utility.yul\":516:522   */\n      dup5\n        /* \"#utility.yul\":511:514   */\n      dup5\n        /* \"#utility.yul\":507:523   */\n      add\n        /* \"#utility.yul\":500:527   */\n      mstore\n        /* \"#utility.yul\":349:533   */\n      pop\n        /* \"#utility.yul\":287:533   */\n      pop\n      pop\n      pop\n      jump\t// out\n        /* \"#utility.yul\":539:641   */\n    tag_32:\n        /* \"#utility.yul\":580:586   */\n      0x00\n        /* \"#utility.yul\":631:633   */\n      0x1f\n        /* \"#utility.yul\":627:634   */\n      not\n        /* \"#utility.yul\":622:624   */\n      0x1f\n        /* \"#utility.yul\":615:620   */\n      dup4\n        /* \"#utility.yul\":611:625   */\n      add\n        /* \"#utility.yul\":607:635   */\n      and\n        /* \"#utility.yul\":597:635   */\n      swap1\n      pop\n        /* \"#utility.yul\":539:641   */\n      swap2\n      swap1\n      pop\n      jump\t// out\n        /* \"#utility.yul\":647:1024   */\n    tag_33:\n        /* \"#utility.yul\":735:738   */\n      0x00\n        /* \"#utility.yul\":763:802   */\n      tag_62\n        /* \"#utility.yul\":796:801   */\n      dup3\n        /* \"#utility.yul\":763:802   */\n      tag_29\n      jump\t// in\n    tag_62:\n        /* \"#utility.yul\":818:889   */\n      tag_63\n        /* \"#utility.yul\":882:888   */\n      dup2\n        /* \"#utility.yul\":877:880   */\n      dup6\n        /* \"#utility.yul\":818:889   */\n      tag_30\n      jump\t// in\n    tag_63:\n        /* \"#utility.yul\":811:889   */\n      swap4\n      pop\n        /* \"#utility.yul\":898:963   */\n      tag_64\n        /* \"#utility.yul\":956:962   */\n      dup2\n        /* \"#utility.yul\":951:954   */\n      dup6\n        /* \"#utility.yul\":944:948   */\n      0x20\n        /* \"#utility.yul\":937:942   */\n      dup7\n        /* \"#utility.yul\":933:949   */\n      add\n        /* \"#utility.yul\":898:963   */\n      tag_31\n      jump\t// in\n    tag_64:\n        /* \"#utility.yul\":988:1017   */\n      tag_65\n        /* \"#utility.yul\":1010:1016   */\n      dup2\n        /* \"#utility.yul\":988:1017   */\n      tag_32\n      jump\t// in\n    tag_65:\n        /* \"#utility.yul\":983:986   */\n      dup5\n        /* \"#utility.yul\":979:1018   */\n      add\n        /* \"#utility.yul\":972:1018   */\n      swap2\n      pop\n        /* \"#utility.yul\":739:1024   */\n      pop\n        /* \"#utility.yul\":647:1024   */\n      swap3\n      swap2\n      pop\n      pop\n      jump\t// out\n        /* \"#utility.yul\":1030:1343   */\n    tag_9:\n        /* \"#utility.yul\":1143:1147   */\n      0x00\n        /* \"#utility.yul\":1181:1183   */\n      0x20\n        /* \"#utility.yul\":1170:1179   */\n      dup3\n        /* \"#utility.yul\":1166:1184   */\n      add\n        /* \"#utility.yul\":1158:1184   */\n      swap1\n      pop\n        /* \"#utility.yul\":1230:1239   */\n      dup2\n        /* \"#utility.yul\":1224:1228   */\n      dup2\n        /* \"#utility.yul\":1220:1240   */\n      sub\n        /* \"#utility.yul\":1216:1217   */\n      0x00\n        /* \"#utility.yul\":1205:1214   */\n      dup4\n        /* \"#utility.yul\":1201:1218   */\n      add\n        /* \"#utility.yul\":1194:1241   */\n      mstore\n        /* \"#utility.yul\":1258:1336   */\n      tag_67\n        /* \"#utility.yul\":1331:1335   */\n      dup2\n        /* \"#utility.yul\":1322:1328   */\n      dup5\n        /* \"#utility.yul\":1258:1336   */\n      tag_33\n      jump\t// in\n    tag_67:\n        /* \"#utility.yul\":1250:1336   */\n      swap1\n      pop\n        /* \"#utility.yul\":1030:1343   */\n      swap3\n      swap2\n      pop\n      pop\n      jump\t// out\n        /* \"#utility.yul\":1349:1426   */\n    tag_34:\n        /* \"#utility.yul\":1386:1393   */\n      0x00\n        /* \"#utility.yul\":1415:1420   */\n      dup2\n        /* \"#utility.yul\":1404:1420   */\n      swap1\n      pop\n        /* \"#utility.yul\":1349:1426   */\n      swap2\n      swap1\n      pop\n      jump\t// out\n        /* \"#utility.yul\":1432:1550   */\n    tag_35:\n        /* \"#utility.yul\":1519:1543   */\n      tag_70\n        /* \"#utility.yul\":1537:1542   */\n      dup2\n        /* \"#utility.yul\":1519:1543   */\n      tag_34\n      jump\t// in\n    tag_70:\n        /* \"#utility.yul\":1514:1517   */\n      dup3\n        /* \"#utility.yul\":1507:1544   */\n      mstore\n        /* \"#utility.yul\":1432:1550   */\n      pop\n      pop\n      jump\t// out\n        /* \"#utility.yul\":1556:1778   */\n    tag_13:\n        /* \"#utility.yul\":1649:1653   */\n      0x00\n        /* \"#utility.yul\":1687:1689   */\n      0x20\n        /* \"#utility.yul\":1676:1685   */\n      dup3\n        /* \"#utility.yul\":1672:1690   */\n      add\n        /* \"#utility.yul\":1664:1690   */\n      swap1\n      pop\n        /* \"#utility.yul\":1700:1771   */\n      tag_72\n        /* \"#utility.yul\":1768:1769   */\n      0x00\n        /* \"#utility.yul\":1757:1766   */\n      dup4\n        /* \"#utility.yul\":1753:1770   */\n      add\n        /* \"#utility.yul\":1744:1750   */\n      dup5\n        /* \"#utility.yul\":1700:1771   */\n      tag_35\n      jump\t// in\n    tag_72:\n        /* \"#utility.yul\":1556:1778   */\n      swap3\n      swap2\n      pop\n      pop\n      jump\t// out\n        /* \"#utility.yul\":1784:1964   */\n    tag_36:\n        /* \"#utility.yul\":1832:1909   */\n      0x4e487b7100000000000000000000000000000000000000000000000000000000\n        /* \"#utility.yul\":1829:1830   */\n      0x00\n        /* \"#utility.yul\":1822:1910   */\n      mstore\n        /* \"#utility.yul\":1929:1933   */\n      0x22\n        /* \"#utility.yul\":1926:1927   */\n      0x04\n        /* \"#utility.yul\":1919:1934   */\n      mstore\n        /* \"#utility.yul\":1953:1957   */\n      0x24\n        /* \"#utility.yul\":1950:1951   */\n      0x00\n        /* \"#utility.yul\":1943:1958   */\n      revert\n        /* \"#utility.yul\":1970:2290   */\n    tag_18:\n        /* \"#utility.yul\":2014:2020   */\n      0x00\n        /* \"#utility.yul\":2051:2052   */\n      0x02\n        /* \"#utility.yul\":2045:2049   */\n      dup3\n        /* \"#utility.yul\":2041:2053   */\n      div\n        /* \"#utility.yul\":2031:2053   */\n      swap1\n      pop\n        /* \"#utility.yul\":2098:2099   */\n      0x01\n        /* \"#utility.yul\":2092:2096   */\n      dup3\n        /* \"#utility.yul\":2088:2100   */\n      and\n        /* \"#utility.yul\":2119:2137   */\n      dup1\n        /* \"#utility.yul\":2109:2190   */\n      tag_75\n      jumpi\n        /* \"#utility.yul\":2175:2179   */\n      0x7f\n        /* \"#utility.yul\":2167:2173   */\n      dup3\n        /* \"#utility.yul\":2163:2180   */\n      and\n        /* \"#utility.yul\":2153:2180   */\n      swap2\n      pop\n        /* \"#utility.yul\":2109:2190   */\n    tag_75:\n        /* \"#utility.yul\":2237:2239   */\n      0x20\n        /* \"#utility.yul\":2229:2235   */\n      dup3\n        /* \"#utility.yul\":2226:2240   */\n      lt\n        /* \"#utility.yul\":2206:2224   */\n      dup2\n        /* \"#utility.yul\":2203:2241   */\n      sub\n        /* \"#utility.yul\":2200:2284   */\n      tag_76\n      jumpi\n        /* \"#utility.yul\":2256:2274   */\n      tag_77\n      tag_36\n      jump\t// in\n    tag_77:\n        /* \"#utility.yul\":2200:2284   */\n    tag_76:\n        /* \"#utility.yul\":2021:2290   */\n      pop\n        /* \"#utility.yul\":1970:2290   */\n      swap2\n      swap1\n      pop\n      jump\t// out\n        /* \"#utility.yul\":2296:2476   */\n    tag_37:\n        /* \"#utility.yul\":2344:2421   */\n      0x4e487b7100000000000000000000000000000000000000000000000000000000\n        /* \"#utility.yul\":2341:2342   */\n      0x00\n        /* \"#utility.yul\":2334:2422   */\n      mstore\n        /* \"#utility.yul\":2441:2445   */\n      0x41\n        /* \"#utility.yul\":2438:2439   */\n      0x04\n        /* \"#utility.yul\":2431:2446   */\n      mstore\n        /* \"#utility.yul\":2465:2469   */\n      0x24\n        /* \"#utility.yul\":2462:2463   */\n      0x00\n        /* \"#utility.yul\":2455:2470   */\n      revert\n        /* \"#utility.yul\":2482:2623   */\n    tag_38:\n        /* \"#utility.yul\":2531:2535   */\n      0x00\n        /* \"#utility.yul\":2554:2557   */\n      dup2\n        /* \"#utility.yul\":2546:2557   */\n      swap1\n      pop\n        /* \"#utility.yul\":2577:2580   */\n      dup2\n        /* \"#utility.yul\":2574:2575   */\n      0x00\n        /* \"#utility.yul\":2567:2581   */\n      mstore\n        /* \"#utility.yul\":2611:2615   */\n      0x20\n        /* \"#utility.yul\":2608:2609   */\n      0x00\n        /* \"#utility.yul\":2598:2616   */\n      keccak256\n        /* \"#utility.yul\":2590:2616   */\n      swap1\n      pop\n        /* \"#utility.yul\":2482:2623   */\n      swap2\n      swap1\n      pop\n      jump\t// out\n        /* \"#utility.yul\":2629:2722   */\n    tag_39:\n        /* \"#utility.yul\":2666:2672   */\n      0x00\n        /* \"#utility.yul\":2713:2715   */\n      0x20\n        /* \"#utility.yul\":2708:2710   */\n      0x1f\n        /* \"#utility.yul\":2701:2706   */\n      dup4\n        /* \"#utility.yul\":2697:2711   */\n      add\n        /* \"#utility.yul\":2693:2716   */\n      div\n        /* \"#utility.yul\":2683:2716   */\n      swap1\n      pop\n        /* \"#utility.yul\":2629:2722   */\n      swap2\n      swap1\n      pop\n      jump\t// out\n        /* \"#utility.yul\":2728:2835   */\n    tag_40:\n        /* \"#utility.yul\":2772:2780   */\n      0x00\n        /* \"#utility.yul\":2822:2827   */\n      dup3\n        /* \"#utility.yul\":2816:2820   */\n      dup3\n        /* \"#utility.yul\":2812:2828   */\n      shl\n        /* \"#utility.yul\":2791:2828   */\n      swap1\n      pop\n        /* \"#utility.yul\":2728:2835   */\n      swap3\n      swap2\n      pop\n      pop\n      jump\t// out\n        /* \"#utility.yul\":2841:3234   */\n    tag_41:\n        /* \"#utility.yul\":2910:2916   */\n      0x00\n        /* \"#utility.yul\":2960:2961   */\n      0x08\n        /* \"#utility.yul\":2948:2958   */\n      dup4\n        /* \"#utility.yul\":2944:2962   */\n      mul\n        /* \"#utility.yul\":2983:3080   */\n      tag_83\n        /* \"#utility.yul\":3013:3079   */\n      0xffffffffffffffffffffffffffffffffffffffffffffffffffffffffffffffff\n        /* \"#utility.yul\":3002:3011   */\n      dup3\n        /* \"#utility.yul\":2983:3080   */\n      tag_40\n      jump\t// in\n    tag_83:\n        /* \"#utility.yul\":3101:3140   */\n      tag_84\n        /* \"#utility.yul\":3131:3139   */\n      dup7\n        /* \"#utility.yul\":3120:3129   */\n      dup4\n        /* \"#utility.yul\":3101:3140   */\n      tag_40\n      jump\t// in\n    tag_84:\n        /* \"#utility.yul\":3089:3140   */\n      swap6\n      pop\n        /* \"#utility.yul\":3173:3177   */\n      dup1\n        /* \"#utility.yul\":3169:3178   */\n      not\n        /* \"#utility.yul\":3162:3167   */\n      dup5\n        /* \"#utility.yul\":3158:3179   */\n      and\n        /* \"#utility.yul\":3149:3179   */\n      swap4\n      pop\n        /* \"#utility.yul\":3222:3226   */\n      dup1\n        /* \"#utility.yul\":3212:3220   */\n      dup7\n        /* \"#utility.yul\":3208:3227   */\n      and\n        /* \"#utility.yul\":3201:3206   */\n      dup5\n        /* \"#utility.yul\":3198:3228   */\n      or\n        /* \"#utility.yul\":3188:3228   */\n      swap3\n      pop\n        /* \"#utility.yul\":2917:3234   */\n      pop\n      pop\n        /* \"#utility.yul\":2841:3234   */\n      swap4\n      swap3\n      pop\n      pop\n      pop\n      jump\t// out\n        /* \"#utility.yul\":3240:3300   */\n    tag_42:\n        /* \"#utility.yul\":3268:3271   */\n      0x00\n        /* \"#utility.yul\":3289:3294   */\n      dup2\n        /* \"#utility.yul\":3282:3294   */\n      swap1\n      pop\n        /* \"#utility.yul\":3240:3300   */\n      swap2\n      swap1\n      pop\n      jump\t// out\n        /* \"#utility.yul\":3306:3448   */\n    tag_43:\n        /* \"#utility.yul\":3356:3365   */\n      0x00\n        /* \"#utility.yul\":3389:3442   */\n      tag_87\n        /* \"#utility.yul\":3407:3441   */\n      tag_88\n        /* \"#utility.yul\":3416:3440   */\n      tag_89\n        /* \"#utility.yul\":3434:3439   */\n      dup5\n        /* \"#utility.yul\":3416:3440   */\n      tag_34\n      jump\t// in\n    tag_89:\n        /* \"#utility.yul\":3407:3441   */\n      tag_42\n      jump\t// in\n    tag_88:\n        /* \"#utility.yul\":3389:3442   */\n      tag_34\n      jump\t// in\n    tag_87:\n        /* \"#utility.yul\":3376:3442   */\n      swap1\n      pop\n        /* \"#utility.yul\":3306:3448   */\n      swap2\n      swap1\n      pop\n      jump\t// out\n        /* \"#utility.yul\":3454:3529   */\n    tag_44:\n        /* \"#utility.yul\":3497:3500   */\n      0x00\n        /* \"#utility.yul\":3518:3523   */\n      dup2\n        /* \"#utility.yul\":3511:3523   */\n      swap1\n      pop\n        /* \"#utility.yul\":3454:3529   */\n      swap2\n      swap1\n      pop\n      jump\t// out\n        /* \"#utility.yul\":3535:3804   */\n    tag_45:\n        /* \"#utility.yul\":3645:3684   */\n      tag_92\n        /* \"#utility.yul\":3676:3683   */\n      dup4\n        /* \"#utility.yul\":3645:3684   */\n      tag_43\n      jump\t// in\n    tag_92:\n        /* \"#utility.yul\":3706:3797   */\n      tag_93\n        /* \"#utility.yul\":3755:3796   */\n      tag_94\n        /* \"#utility.yul\":3779:3795   */\n      dup3\n        /* \"#utility.yul\":3755:3796   */\n      tag_44\n      jump\t// in\n    tag_94:\n        /* \"#utility.yul\":3747:3753   */\n      dup5\n        /* \"#utility.yul\":3740:3744   */\n      dup5\n        /* \"#utility.yul\":3734:3745   */\n      sload\n        /* \"#utility.yul\":3706:3797   */\n      tag_41\n      jump\t// in\n    tag_93:\n        /* \"#utility.yul\":3700:3704   */\n      dup3\n        /* \"#utility.yul\":3693:3798   */\n      sstore\n        /* \"#utility.yul\":3611:3804   */\n      pop\n        /* \"#utility.yul\":3535:3804   */\n      pop\n      pop\n      pop\n      jump\t// out\n        /* \"#utility.yul\":3810:3883   */\n    tag_46:\n        /* \"#utility.yul\":3855:3858   */\n      0x00\n        /* \"#utility.yul\":3810:3883   */\n      swap1\n      jump\t// out\n        /* \"#utility.yul\":3889:4078   */\n    tag_47:\n        /* \"#utility.yul\":3966:3998   */\n      tag_97\n      tag_46\n      jump\t// in\n    tag_97:\n        /* \"#utility.yul\":4007:4072   */\n      tag_98\n        /* \"#utility.yul\":4065:4071   */\n      dup2\n        /* \"#utility.yul\":4057:4063   */\n      dup5\n        /* \"#utility.yul\":4051:4055   */\n      dup5\n        /* \"#utility.yul\":4007:4072   */\n      tag_45\n      jump\t// in\n    tag_98:\n        /* \"#utility.yul\":3942:4078   */\n      pop\n        /* \"#utility.yul\":3889:4078   */\n      pop\n      pop\n      jump\t// out\n        /* \"#utility.yul\":4084:4270   */\n    tag_48:\n        /* \"#utility.yul\":4144:4264   */\n    tag_100:\n        /* \"#utility.yul\":4161:4164   */\n      dup2\n        /* \"#utility.yul\":4154:4159   */\n      dup2\n        /* \"#utility.yul\":4151:4165   */\n      lt\n        /* \"#utility.yul\":4144:4264   */\n      iszero\n      tag_102\n      jumpi\n        /* \"#utility.yul\":4215:4254   */\n      tag_103\n        /* \"#utility.yul\":4252:4253   */\n      0x00\n        /* \"#utility.yul\":4245:4250   */\n      dup3\n        /* \"#utility.yul\":4215:4254   */\n      tag_47\n      jump\t// in\n    tag_103:\n        /* \"#utility.yul\":4188:4189   */\n      0x01\n        /* \"#utility.yul\":4181:4186   */\n      dup2\n        /* \"#utility.yul\":4177:4190   */\n      add\n        /* \"#utility.yul\":4168:4190   */\n      swap1\n      pop\n        /* \"#utility.yul\":4144:4264   */\n      jump(tag_100)\n    tag_102:\n        /* \"#utility.yul\":4084:4270   */\n      pop\n      pop\n      jump\t// out\n        /* \"#utility.yul\":4276:4819   */\n    tag_49:\n        /* \"#utility.yul\":4377:4379   */\n      0x1f\n        /* \"#utility.yul\":4372:4375   */\n      dup3\n        /* \"#utility.yul\":4369:4380   */\n      gt\n        /* \"#utility.yul\":4366:4812   */\n      iszero\n      tag_105\n      jumpi\n        /* \"#utility.yul\":4411:4449   */\n      tag_106\n        /* \"#utility.yul\":4443:4448   */\n      dup2\n        /* \"#utility.yul\":4411:4449   */\n      tag_38\n      jump\t// in\n    tag_106:\n        /* \"#utility.yul\":4495:4524   */\n      tag_107\n        /* \"#utility.yul\":4513:4523   */\n      dup5\n        /* \"#utility.yul\":4495:4524   */\n      tag_39\n      jump\t// in\n    tag_107:\n        /* \"#utility.yul\":4485:4493   */\n      dup2\n        /* \"#utility.yul\":4481:4525   */\n      add\n        /* \"#utility.yul\":4678:4680   */\n      0x20\n        /* \"#utility.yul\":4666:4676   */\n      dup6\n        /* \"#utility.yul\":4663:4681   */\n      lt\n        /* \"#utility.yul\":4660:4709   */\n      iszero\n      tag_108\n      jumpi\n        /* \"#utility.yul\":4699:4707   */\n      dup2\n        /* \"#utility.yul\":4684:4707   */\n      swap1\n      pop\n        /* \"#utility.yul\":4660:4709   */\n    tag_108:\n        /* \"#utility.yul\":4722:4802   */\n      tag_109\n        /* \"#utility.yul\":4778:4800   */\n      tag_110\n        /* \"#utility.yul\":4796:4799   */\n      dup6\n        /* \"#utility.yul\":4778:4800   */\n      tag_39\n      jump\t// in\n    tag_110:\n        /* \"#utility.yul\":4768:4776   */\n      dup4\n        /* \"#utility.yul\":4764:4801   */\n      add\n        /* \"#utility.yul\":4751:4762   */\n      dup3\n        /* \"#utility.yul\":4722:4802   */\n      tag_48\n      jump\t// in\n    tag_109:\n        /* \"#utility.yul\":4381:4812   */\n      pop\n      pop\n        /* \"#utility.yul\":4366:4812   */\n    tag_105:\n        /* \"#utility.yul\":4276:4819   */\n      pop\n      pop\n      pop\n      jump\t// out\n        /* \"#utility.yul\":4825:4942   */\n    tag_50:\n        /* \"#utility.yul\":4879:4887   */\n      0x00\n        /* \"#utility.yul\":4929:4934   */\n      dup3\n        /* \"#utility.yul\":4923:4927   */\n      dup3\n        /* \"#utility.yul\":4919:4935   */\n      shr\n        /* \"#utility.yul\":4898:4935   */\n      swap1\n      pop\n        /* \"#utility.yul\":4825:4942   */\n      swap3\n      swap2\n      pop\n      pop\n      jump\t// out\n        /* \"#utility.yul\":4948:5117   */\n    tag_51:\n        /* \"#utility.yul\":4992:4998   */\n      0x00\n        /* \"#utility.yul\":5025:5076   */\n      tag_113\n        /* \"#utility.yul\":5073:5074   */\n      0x00\n        /* \"#utility.yul\":5069:5075   */\n      not\n        /* \"#utility.yul\":5061:5066   */\n      dup5\n        /* \"#utility.yul\":5058:5059   */\n      0x08\n        /* \"#utility.yul\":5054:5067   */\n      mul\n        /* \"#utility.yul\":5025:5076   */\n      tag_50\n      jump\t// in\n    tag_113:\n        /* \"#utility.yul\":5021:5077   */\n      not\n        /* \"#utility.yul\":5106:5110   */\n      dup1\n        /* \"#utility.yul\":5100:5104   */\n      dup4\n        /* \"#utility.yul\":5096:5111   */\n      and\n        /* \"#utility.yul\":5086:5111   */\n      swap2\n      pop\n        /* \"#utility.yul\":4999:5117   */\n      pop\n        /* \"#utility.yul\":4948:5117   */\n      swap3\n      swap2\n      pop\n      pop\n      jump\t// out\n        /* \"#utility.yul\":5122:5417   */\n    tag_52:\n        /* \"#utility.yul\":5198:5202   */\n      0x00\n        /* \"#utility.yul\":5344:5373   */\n      tag_115\n        /* \"#utility.yul\":5369:5372   */\n      dup4\n        /* \"#utility.yul\":5363:5367   */\n      dup4\n        /* \"#utility.yul\":5344:5373   */\n      tag_51\n      jump\t// in\n    tag_115:\n        /* \"#utility.yul\":5336:5373   */\n      swap2\n      pop\n        /* \"#utility.yul\":5406:5409   */\n      dup3\n        /* \"#utility.yul\":5403:5404   */\n      0x02\n        /* \"#utility.yul\":5399:5410   */\n      mul\n        /* \"#utility.yul\":5393:5397   */\n      dup3\n        /* \"#utility.yul\":5390:5411   */\n      or\n        /* \"#utility.yul\":5382:5411   */\n      swap1\n      pop\n        /* \"#utility.yul\":5122:5417   */\n      swap3\n      swap2\n      pop\n      pop\n      jump\t// out\n        /* \"#utility.yul\":5422:6817   */\n    tag_26:\n        /* \"#utility.yul\":5539:5576   */\n      tag_117\n        /* \"#utility.yul\":5572:5575   */\n      dup3\n        /* \"#utility.yul\":5539:5576   */\n      tag_29\n      jump\t// in\n    tag_117:\n        /* \"#utility.yul\":5641:5659   */\n      0xffffffffffffffff\n        /* \"#utility.yul\":5633:5639   */\n      dup2\n        /* \"#utility.yul\":5630:5660   */\n      gt\n        /* \"#utility.yul\":5627:5683   */\n      iszero\n      tag_118\n      jumpi\n        /* \"#utility.yul\":5663:5681   */\n      tag_119\n      tag_37\n      jump\t// in\n    tag_119:\n        /* \"#utility.yul\":5627:5683   */\n    tag_118:\n        /* \"#utility.yul\":5707:5745   */\n      tag_120\n        /* \"#utility.yul\":5739:5743   */\n      dup3\n        /* \"#utility.yul\":5733:5744   */\n      sload\n        /* \"#utility.yul\":5707:5745   */\n      tag_18\n      jump\t// in\n    tag_120:\n        /* \"#utility.yul\":5792:5859   */\n      tag_121\n        /* \"#utility.yul\":5852:5858   */\n      dup3\n        /* \"#utility.yul\":5844:5850   */\n      dup3\n        /* \"#utility.yul\":5838:5842   */\n      dup6\n        /* \"#utility.yul\":5792:5859   */\n      tag_49\n      jump\t// in\n    tag_121:\n        /* \"#utility.yul\":5886:5887   */\n      0x00\n        /* \"#utility.yul\":5910:5914   */\n      0x20\n        /* \"#utility.yul\":5897:5914   */\n      swap1\n      pop\n        /* \"#utility.yul\":5942:5944   */\n      0x1f\n        /* \"#utility.yul\":5934:5940   */\n      dup4\n        /* \"#utility.yul\":5931:5945   */\n      gt\n        /* \"#utility.yul\":5959:5960   */\n      0x01\n        /* \"#utility.yul\":5954:6572   */\n      dup2\n      eq\n      tag_123\n      jumpi\n        /* \"#utility.yul\":6616:6617   */\n      0x00\n        /* \"#utility.yul\":6633:6639   */\n      dup5\n        /* \"#utility.yul\":6630:6707   */\n      iszero\n      tag_124\n      jumpi\n        /* \"#utility.yul\":6682:6691   */\n      dup3\n        /* \"#utility.yul\":6677:6680   */\n      dup8\n        /* \"#utility.yul\":6673:6692   */\n      add\n        /* \"#utility.yul\":6667:6693   */\n      mload\n        /* \"#utility.yul\":6658:6693   */\n      swap1\n      pop\n        /* \"#utility.yul\":6630:6707   */\n    tag_124:\n        /* \"#utility.yul\":6733:6800   */\n      tag_125\n        /* \"#utility.yul\":6793:6799   */\n      dup6\n        /* \"#utility.yul\":6786:6791   */\n      dup3\n        /* \"#utility.yul\":6733:6800   */\n      tag_52\n      jump\t// in\n    tag_125:\n        /* \"#utility.yul\":6727:6731   */\n      dup7\n        /* \"#utility.yul\":6720:6801   */\n      sstore\n        /* \"#utility.yul\":6589:6811   */\n      pop\n        /* \"#utility.yul\":5924:6811   */\n      jump(tag_122)\n        /* \"#utility.yul\":5954:6572   */\n    tag_123:\n        /* \"#utility.yul\":6006:6010   */\n      0x1f\n        /* \"#utility.yul\":6002:6011   */\n      not\n        /* \"#utility.yul\":5994:6000   */\n      dup5\n        /* \"#utility.yul\":5990:6012   */\n      and\n        /* \"#utility.yul\":6040:6077   */\n      tag_126\n        /* \"#utility.yul\":6072:6076   */\n      dup7\n        /* \"#utility.yul\":6040:6077   */\n      tag_38\n      jump\t// in\n    tag_126:\n        /* \"#utility.yul\":6099:6100   */\n      0x00\n        /* \"#utility.yul\":6113:6321   */\n    tag_127:\n        /* \"#utility.yul\":6127:6134   */\n      dup3\n        /* \"#utility.yul\":6124:6125   */\n      dup2\n        /* \"#utility.yul\":6121:6135   */\n      lt\n        /* \"#utility.yul\":6113:6321   */\n      iszero\n      tag_129\n      jumpi\n        /* \"#utility.yul\":6206:6215   */\n      dup5\n        /* \"#utility.yul\":6201:6204   */\n      dup10\n        /* \"#utility.yul\":6197:6216   */\n      add\n        /* \"#utility.yul\":6191:6217   */\n      mload\n        /* \"#utility.yul\":6183:6189   */\n      dup3\n        /* \"#utility.yul\":6176:6218   */\n      sstore\n        /* \"#utility.yul\":6257:6258   */\n      0x01\n        /* \"#utility.yul\":6249:6255   */\n      dup3\n        /* \"#utility.yul\":6245:6259   */\n      add\n        /* \"#utility.yul\":6235:6259   */\n      swap2\n      pop\n        /* \"#utility.yul\":6304:6306   */\n      0x20\n        /* \"#utility.yul\":6293:6302   */\n      dup6\n        /* \"#utility.yul\":6289:6307   */\n      add\n        /* \"#utility.yul\":6276:6307   */\n      swap5\n      pop\n        /* \"#utility.yul\":6150:6154   */\n      0x20\n        /* \"#utility.yul\":6147:6148   */\n      dup2\n        /* \"#utility.yul\":6143:6155   */\n      add\n        /* \"#utility.yul\":6138:6155   */\n      swap1\n      pop\n        /* \"#utility.yul\":6113:6321   */\n      jump(tag_127)\n    tag_129:\n        /* \"#utility.yul\":6349:6355   */\n      dup7\n        /* \"#utility.yul\":6340:6347   */\n      dup4\n        /* \"#utility.yul\":6337:6356   */\n      lt\n        /* \"#utility.yul\":6334:6513   */\n      iszero\n      tag_130\n      jumpi\n        /* \"#utility.yul\":6407:6416   */\n      dup5\n        /* \"#utility.yul\":6402:6405   */\n      dup10\n        /* \"#utility.yul\":6398:6417   */\n      add\n        /* \"#utility.yul\":6392:6418   */\n      mload\n        /* \"#utility.yul\":6450:6498   */\n      tag_131\n        /* \"#utility.yul\":6492:6496   */\n      0x1f\n        /* \"#utility.yul\":6484:6490   */\n      dup10\n        /* \"#utility.yul\":6480:6497   */\n      and\n        /* \"#utility.yul\":6469:6478   */\n      dup3\n        /* \"#utility.yul\":6450:6498   */\n      tag_51\n      jump\t// in\n    tag_131:\n        /* \"#utility.yul\":6442:6448   */\n      dup4\n        /* \"#utility.yul\":6435:6499   */\n      sstore\n        /* \"#utility.yul\":6357:6513   */\n      pop\n        /* \"#utility.yul\":6334:6513   */\n    tag_130:\n        /* \"#utility.yul\":6559:6560   */\n      0x01\n        /* \"#utility.yul\":6555:6556   */\n      0x02\n        /* \"#utility.yul\":6547:6553   */\n      dup9\n        /* \"#utility.yul\":6543:6557   */\n      mul\n        /* \"#utility.yul\":6539:6561   */\n      add\n        /* \"#utility.yul\":6533:6537   */\n      dup9\n        /* \"#utility.yul\":6526:6562   */\n      sstore\n        /* \"#utility.yul\":5961:6572   */\n      pop\n      pop\n      pop\n        /* \"#utility.yul\":5924:6811   */\n    tag_122:\n      pop\n        /* \"#utility.yul\":5514:6817   */\n      pop\n      pop\n      pop\n        /* \"#utility.yul\":5422:6817   */\n      pop\n      pop\n      jump\t// out\n\n    auxdata: 0xa26469706673582212205c956e02f01861ff5b7bc804da50069e0d7d47b5fc7635062c8c0b7ad2dfffda64736f6c63430008120033\n}\n",
				"bytecode": {
					"linkReferences": {},
					"object": "608060405234801561001057600080fd5b50610669806100206000396000f3fe608060405234801561001057600080fd5b50600436106100415760003560e01c80631d45f3bf146100465780634056814c14610064578063d629546c14610082575b600080fd5b61004e61008c565b60405161005b91906102d0565b60405180910390f35b61006c610121565b604051610079919061030b565b60405180910390f35b61008a61012d565b005b60606000600301805461009e90610355565b80601f01602080910402602001604051908101604052809291908181526020018280546100ca90610355565b80156101175780601f106100ec57610100808354040283529160200191610117565b820191906000526020600020905b8154815290600101906020018083116100fa57829003601f168201915b5050505050905090565b60008060020154905090565b60405180608001604052806040518060400160405280600e81526020017f437572736f20536f6c696469747900000000000000000000000000000000000081525081526020016040518060400160405280600881526020017f536f6c69646974790000000000000000000000000000000000000000000000008152508152602001600181526020016040518060400160405280601081526020017f41727475726f204865726e616e64657a000000000000000000000000000000008152508152506000808201518160000190816102049190610561565b50602082015181600101908161021a9190610561565b5060408201518160020155606082015181600301908161023a9190610561565b50905050565b600081519050919050565b600082825260208201905092915050565b60005b8381101561027a57808201518184015260208101905061025f565b60008484015250505050565b6000601f19601f8301169050919050565b60006102a282610240565b6102ac818561024b565b93506102bc81856020860161025c565b6102c581610286565b840191505092915050565b600060208201905081810360008301526102ea8184610297565b905092915050565b6000819050919050565b610305816102f2565b82525050565b600060208201905061032060008301846102fc565b92915050565b7f4e487b7100000000000000000000000000000000000000000000000000000000600052602260045260246000fd5b6000600282049050600182168061036d57607f821691505b6020821081036103805761037f610326565b5b50919050565b7f4e487b7100000000000000000000000000000000000000000000000000000000600052604160045260246000fd5b60008190508160005260206000209050919050565b60006020601f8301049050919050565b600082821b905092915050565b6000600883026104177fffffffffffffffffffffffffffffffffffffffffffffffffffffffffffffffff826103da565b61042186836103da565b95508019841693508086168417925050509392505050565b6000819050919050565b600061045e610459610454846102f2565b610439565b6102f2565b9050919050565b6000819050919050565b61047883610443565b61048c61048482610465565b8484546103e7565b825550505050565b600090565b6104a1610494565b6104ac81848461046f565b505050565b5b818110156104d0576104c5600082610499565b6001810190506104b2565b5050565b601f821115610515576104e6816103b5565b6104ef846103ca565b810160208510156104fe578190505b61051261050a856103ca565b8301826104b1565b50505b505050565b600082821c905092915050565b60006105386000198460080261051a565b1980831691505092915050565b60006105518383610527565b9150826002028217905092915050565b61056a82610240565b67ffffffffffffffff81111561058357610582610386565b5b61058d8254610355565b6105988282856104d4565b600060209050601f8311600181146105cb57600084156105b9578287015190505b6105c38582610545565b86555061062b565b601f1984166105d9866103b5565b60005b82811015610601578489015182556001820191506020850194506020810190506105dc565b8683101561061e578489015161061a601f891682610527565b8355505b6001600288020188555050505b50505050505056fea26469706673582212205c956e02f01861ff5b7bc804da50069e0d7d47b5fc7635062c8c0b7ad2dfffda64736f6c63430008120033",
					"opcodes": "PUSH1 0x80 PUSH1 0x40 MSTORE CALLVALUE DUP1 ISZERO PUSH2 0x10 JUMPI PUSH1 0x0 DUP1 REVERT JUMPDEST POP PUSH2 0x669 DUP1 PUSH2 0x20 PUSH1 0x0 CODECOPY PUSH1 0x0 RETURN INVALID PUSH1 0x80 PUSH1 0x40 MSTORE CALLVALUE DUP1 ISZERO PUSH2 0x10 JUMPI PUSH1 0x0 DUP1 REVERT JUMPDEST POP PUSH1 0x4 CALLDATASIZE LT PUSH2 0x41 JUMPI PUSH1 0x0 CALLDATALOAD PUSH1 0xE0 SHR DUP1 PUSH4 0x1D45F3BF EQ PUSH2 0x46 JUMPI DUP1 PUSH4 0x4056814C EQ PUSH2 0x64 JUMPI DUP1 PUSH4 0xD629546C EQ PUSH2 0x82 JUMPI JUMPDEST PUSH1 0x0 DUP1 REVERT JUMPDEST PUSH2 0x4E PUSH2 0x8C JUMP JUMPDEST PUSH1 0x40 MLOAD PUSH2 0x5B SWAP2 SWAP1 PUSH2 0x2D0 JUMP JUMPDEST PUSH1 0x40 MLOAD DUP1 SWAP2 SUB SWAP1 RETURN JUMPDEST PUSH2 0x6C PUSH2 0x121 JUMP JUMPDEST PUSH1 0x40 MLOAD PUSH2 0x79 SWAP2 SWAP1 PUSH2 0x30B JUMP JUMPDEST PUSH1 0x40 MLOAD DUP1 SWAP2 SUB SWAP1 RETURN JUMPDEST PUSH2 0x8A PUSH2 0x12D JUMP JUMPDEST STOP JUMPDEST PUSH1 0x60 PUSH1 0x0 PUSH1 0x3 ADD DUP1 SLOAD PUSH2 0x9E SWAP1 PUSH2 0x355 JUMP JUMPDEST DUP1 PUSH1 0x1F ADD PUSH1 0x20 DUP1 SWAP2 DIV MUL PUSH1 0x20 ADD PUSH1 0x40 MLOAD SWAP1 DUP2 ADD PUSH1 0x40 MSTORE DUP1 SWAP3 SWAP2 SWAP1 DUP2 DUP2 MSTORE PUSH1 0x20 ADD DUP3 DUP1 SLOAD PUSH2 0xCA SWAP1 PUSH2 0x355 JUMP JUMPDEST DUP1 ISZERO PUSH2 0x117 JUMPI DUP1 PUSH1 0x1F LT PUSH2 0xEC JUMPI PUSH2 0x100 DUP1 DUP4 SLOAD DIV MUL DUP4 MSTORE SWAP2 PUSH1 0x20 ADD SWAP2 PUSH2 0x117 JUMP JUMPDEST DUP3 ADD SWAP2 SWAP1 PUSH1 0x0 MSTORE PUSH1 0x20 PUSH1 0x0 KECCAK256 SWAP1 JUMPDEST DUP2 SLOAD DUP2 MSTORE SWAP1 PUSH1 0x1 ADD SWAP1 PUSH1 0x20 ADD DUP1 DUP4 GT PUSH2 0xFA JUMPI DUP3 SWAP1 SUB PUSH1 0x1F AND DUP3 ADD SWAP2 JUMPDEST POP POP POP POP POP SWAP1 POP SWAP1 JUMP JUMPDEST PUSH1 0x0 DUP1 PUSH1 0x2 ADD SLOAD SWAP1 POP SWAP1 JUMP JUMPDEST PUSH1 0x40 MLOAD DUP1 PUSH1 0x80 ADD PUSH1 0x40 MSTORE DUP1 PUSH1 0x40 MLOAD DUP1 PUSH1 0x40 ADD PUSH1 0x40 MSTORE DUP1 PUSH1 0xE DUP2 MSTORE PUSH1 0x20 ADD PUSH32 0x437572736F20536F6C6964697479000000000000000000000000000000000000 DUP2 MSTORE POP DUP2 MSTORE PUSH1 0x20 ADD PUSH1 0x40 MLOAD DUP1 PUSH1 0x40 ADD PUSH1 0x40 MSTORE DUP1 PUSH1 0x8 DUP2 MSTORE PUSH1 0x20 ADD PUSH32 0x536F6C6964697479000000000000000000000000000000000000000000000000 DUP2 MSTORE POP DUP2 MSTORE PUSH1 0x20 ADD PUSH1 0x1 DUP2 MSTORE PUSH1 0x20 ADD PUSH1 0x40 MLOAD DUP1 PUSH1 0x40 ADD PUSH1 0x40 MSTORE DUP1 PUSH1 0x10 DUP2 MSTORE PUSH1 0x20 ADD PUSH32 0x41727475726F204865726E616E64657A00000000000000000000000000000000 DUP2 MSTORE POP DUP2 MSTORE POP PUSH1 0x0 DUP1 DUP3 ADD MLOAD DUP2 PUSH1 0x0 ADD SWAP1 DUP2 PUSH2 0x204 SWAP2 SWAP1 PUSH2 0x561 JUMP JUMPDEST POP PUSH1 0x20 DUP3 ADD MLOAD DUP2 PUSH1 0x1 ADD SWAP1 DUP2 PUSH2 0x21A SWAP2 SWAP1 PUSH2 0x561 JUMP JUMPDEST POP PUSH1 0x40 DUP3 ADD MLOAD DUP2 PUSH1 0x2 ADD SSTORE PUSH1 0x60 DUP3 ADD MLOAD DUP2 PUSH1 0x3 ADD SWAP1 DUP2 PUSH2 0x23A SWAP2 SWAP1 PUSH2 0x561 JUMP JUMPDEST POP SWAP1 POP POP JUMP JUMPDEST PUSH1 0x0 DUP2 MLOAD SWAP1 POP SWAP2 SWAP1 POP JUMP JUMPDEST PUSH1 0x0 DUP3 DUP3 MSTORE PUSH1 0x20 DUP3 ADD SWAP1 POP SWAP3 SWAP2 POP POP JUMP JUMPDEST PUSH1 0x0 JUMPDEST DUP4 DUP2 LT ISZERO PUSH2 0x27A JUMPI DUP1 DUP3 ADD MLOAD DUP2 DUP5 ADD MSTORE PUSH1 0x20 DUP2 ADD SWAP1 POP PUSH2 0x25F JUMP JUMPDEST PUSH1 0x0 DUP5 DUP5 ADD MSTORE POP POP POP POP JUMP JUMPDEST PUSH1 0x0 PUSH1 0x1F NOT PUSH1 0x1F DUP4 ADD AND SWAP1 POP SWAP2 SWAP1 POP JUMP JUMPDEST PUSH1 0x0 PUSH2 0x2A2 DUP3 PUSH2 0x240 JUMP JUMPDEST PUSH2 0x2AC DUP2 DUP6 PUSH2 0x24B JUMP JUMPDEST SWAP4 POP PUSH2 0x2BC DUP2 DUP6 PUSH1 0x20 DUP7 ADD PUSH2 0x25C JUMP JUMPDEST PUSH2 0x2C5 DUP2 PUSH2 0x286 JUMP JUMPDEST DUP5 ADD SWAP2 POP POP SWAP3 SWAP2 POP POP JUMP JUMPDEST PUSH1 0x0 PUSH1 0x20 DUP3 ADD SWAP1 POP DUP2 DUP2 SUB PUSH1 0x0 DUP4 ADD MSTORE PUSH2 0x2EA DUP2 DUP5 PUSH2 0x297 JUMP JUMPDEST SWAP1 POP SWAP3 SWAP2 POP POP JUMP JUMPDEST PUSH1 0x0 DUP2 SWAP1 POP SWAP2 SWAP1 POP JUMP JUMPDEST PUSH2 0x305 DUP2 PUSH2 0x2F2 JUMP JUMPDEST DUP3 MSTORE POP POP JUMP JUMPDEST PUSH1 0x0 PUSH1 0x20 DUP3 ADD SWAP1 POP PUSH2 0x320 PUSH1 0x0 DUP4 ADD DUP5 PUSH2 0x2FC JUMP JUMPDEST SWAP3 SWAP2 POP POP JUMP JUMPDEST PUSH32 0x4E487B7100000000000000000000000000000000000000000000000000000000 PUSH1 0x0 MSTORE PUSH1 0x22 PUSH1 0x4 MSTORE PUSH1 0x24 PUSH1 0x0 REVERT JUMPDEST PUSH1 0x0 PUSH1 0x2 DUP3 DIV SWAP1 POP PUSH1 0x1 DUP3 AND DUP1 PUSH2 0x36D JUMPI PUSH1 0x7F DUP3 AND SWAP2 POP JUMPDEST PUSH1 0x20 DUP3 LT DUP2 SUB PUSH2 0x380 JUMPI PUSH2 0x37F PUSH2 0x326 JUMP JUMPDEST JUMPDEST POP SWAP2 SWAP1 POP JUMP JUMPDEST PUSH32 0x4E487B7100000000000000000000000000000000000000000000000000000000 PUSH1 0x0 MSTORE PUSH1 0x41 PUSH1 0x4 MSTORE PUSH1 0x24 PUSH1 0x0 REVERT JUMPDEST PUSH1 0x0 DUP2 SWAP1 POP DUP2 PUSH1 0x0 MSTORE PUSH1 0x20 PUSH1 0x0 KECCAK256 SWAP1 POP SWAP2 SWAP1 POP JUMP JUMPDEST PUSH1 0x0 PUSH1 0x20 PUSH1 0x1F DUP4 ADD DIV SWAP1 POP SWAP2 SWAP1 POP JUMP JUMPDEST PUSH1 0x0 DUP3 DUP3 SHL SWAP1 POP SWAP3 SWAP2 POP POP JUMP JUMPDEST PUSH1 0x0 PUSH1 0x8 DUP4 MUL PUSH2 0x417 PUSH32 0xFFFFFFFFFFFFFFFFFFFFFFFFFFFFFFFFFFFFFFFFFFFFFFFFFFFFFFFFFFFFFFFF DUP3 PUSH2 0x3DA JUMP JUMPDEST PUSH2 0x421 DUP7 DUP4 PUSH2 0x3DA JUMP JUMPDEST SWAP6 POP DUP1 NOT DUP5 AND SWAP4 POP DUP1 DUP7 AND DUP5 OR SWAP3 POP POP POP SWAP4 SWAP3 POP POP POP JUMP JUMPDEST PUSH1 0x0 DUP2 SWAP1 POP SWAP2 SWAP1 POP JUMP JUMPDEST PUSH1 0x0 PUSH2 0x45E PUSH2 0x459 PUSH2 0x454 DUP5 PUSH2 0x2F2 JUMP JUMPDEST PUSH2 0x439 JUMP JUMPDEST PUSH2 0x2F2 JUMP JUMPDEST SWAP1 POP SWAP2 SWAP1 POP JUMP JUMPDEST PUSH1 0x0 DUP2 SWAP1 POP SWAP2 SWAP1 POP JUMP JUMPDEST PUSH2 0x478 DUP4 PUSH2 0x443 JUMP JUMPDEST PUSH2 0x48C PUSH2 0x484 DUP3 PUSH2 0x465 JUMP JUMPDEST DUP5 DUP5 SLOAD PUSH2 0x3E7 JUMP JUMPDEST DUP3 SSTORE POP POP POP POP JUMP JUMPDEST PUSH1 0x0 SWAP1 JUMP JUMPDEST PUSH2 0x4A1 PUSH2 0x494 JUMP JUMPDEST PUSH2 0x4AC DUP2 DUP5 DUP5 PUSH2 0x46F JUMP JUMPDEST POP POP POP JUMP JUMPDEST JUMPDEST DUP2 DUP2 LT ISZERO PUSH2 0x4D0 JUMPI PUSH2 0x4C5 PUSH1 0x0 DUP3 PUSH2 0x499 JUMP JUMPDEST PUSH1 0x1 DUP2 ADD SWAP1 POP PUSH2 0x4B2 JUMP JUMPDEST POP POP JUMP JUMPDEST PUSH1 0x1F DUP3 GT ISZERO PUSH2 0x515 JUMPI PUSH2 0x4E6 DUP2 PUSH2 0x3B5 JUMP JUMPDEST PUSH2 0x4EF DUP5 PUSH2 0x3CA JUMP JUMPDEST DUP2 ADD PUSH1 0x20 DUP6 LT ISZERO PUSH2 0x4FE JUMPI DUP2 SWAP1 POP JUMPDEST PUSH2 0x512 PUSH2 0x50A DUP6 PUSH2 0x3CA JUMP JUMPDEST DUP4 ADD DUP3 PUSH2 0x4B1 JUMP JUMPDEST POP POP JUMPDEST POP POP POP JUMP JUMPDEST PUSH1 0x0 DUP3 DUP3 SHR SWAP1 POP SWAP3 SWAP2 POP POP JUMP JUMPDEST PUSH1 0x0 PUSH2 0x538 PUSH1 0x0 NOT DUP5 PUSH1 0x8 MUL PUSH2 0x51A JUMP JUMPDEST NOT DUP1 DUP4 AND SWAP2 POP POP SWAP3 SWAP2 POP POP JUMP JUMPDEST PUSH1 0x0 PUSH2 0x551 DUP4 DUP4 PUSH2 0x527 JUMP JUMPDEST SWAP2 POP DUP3 PUSH1 0x2 MUL DUP3 OR SWAP1 POP SWAP3 SWAP2 POP POP JUMP JUMPDEST PUSH2 0x56A DUP3 PUSH2 0x240 JUMP JUMPDEST PUSH8 0xFFFFFFFFFFFFFFFF DUP2 GT ISZERO PUSH2 0x583 JUMPI PUSH2 0x582 PUSH2 0x386 JUMP JUMPDEST JUMPDEST PUSH2 0x58D DUP3 SLOAD PUSH2 0x355 JUMP JUMPDEST PUSH2 0x598 DUP3 DUP3 DUP6 PUSH2 0x4D4 JUMP JUMPDEST PUSH1 0x0 PUSH1 0x20 SWAP1 POP PUSH1 0x1F DUP4 GT PUSH1 0x1 DUP2 EQ PUSH2 0x5CB JUMPI PUSH1 0x0 DUP5 ISZERO PUSH2 0x5B9 JUMPI DUP3 DUP8 ADD MLOAD SWAP1 POP JUMPDEST PUSH2 0x5C3 DUP6 DUP3 PUSH2 0x545 JUMP JUMPDEST DUP7 SSTORE POP PUSH2 0x62B JUMP JUMPDEST PUSH1 0x1F NOT DUP5 AND PUSH2 0x5D9 DUP7 PUSH2 0x3B5 JUMP JUMPDEST PUSH1 0x0 JUMPDEST DUP3 DUP2 LT ISZERO PUSH2 0x601 JUMPI DUP5 DUP10 ADD MLOAD DUP3 SSTORE PUSH1 0x1 DUP3 ADD SWAP2 POP PUSH1 0x20 DUP6 ADD SWAP5 POP PUSH1 0x20 DUP2 ADD SWAP1 POP PUSH2 0x5DC JUMP JUMPDEST DUP7 DUP4 LT ISZERO PUSH2 0x61E JUMPI DUP5 DUP10 ADD MLOAD PUSH2 0x61A PUSH1 0x1F DUP10 AND DUP3 PUSH2 0x527 JUMP JUMPDEST DUP4 SSTORE POP JUMPDEST PUSH1 0x1 PUSH1 0x2 DUP9 MUL ADD DUP9 SSTORE POP POP POP JUMPDEST POP POP POP POP POP POP JUMP INVALID LOG2 PUSH5 0x6970667358 0x22 SLT KECCAK256 0x5C SWAP6 PUSH15 0x2F01861FF5B7BC804DA50069E0D7D SELFBALANCE 0xB5 0xFC PUSH23 0x35062C8C0B7AD2DFFFDA64736F6C634300081200330000 "
				},
				"gasEstimates": {
					"creation": {
						"codeDepositCost": "328200",
						"executionCost": "368",
						"totalCost": "328568"
					},
					"external": {
						"bookInformation()": "2443",
						"bookName()": "infinite",
						"setBook()": "infinite"
					}
				},
				"methodIdentifiers": {
					"bookInformation()": "4056814c",
					"bookName()": "1d45f3bf",
					"setBook()": "d629546c"
				}
			},
			"storageLayout": {
				"storage": [
					{
						"astId": 13,
						"contract": "Structs.sol:Structs",
						"label": "libro",
						"offset": 0,
						"slot": "0",
						"type": "t_struct(Libro)10_storage"
					}
				],
				"types": {
					"t_string_storage": {
						"encoding": "bytes",
						"label": "string",
						"numberOfBytes": "32"
					},
					"t_struct(Libro)10_storage": {
						"encoding": "inplace",
						"label": "struct Structs.Libro",
						"members": [
							{
								"astId": 3,
								"contract": "Structs.sol:Structs",
								"label": "titulo",
								"offset": 0,
								"slot": "0",
								"type": "t_string_storage"
							},
							{
								"astId": 5,
								"contract": "Structs.sol:Structs",
								"label": "tema",
								"offset": 0,
								"slot": "1",
								"type": "t_string_storage"
							},
							{
								"astId": 7,
								"contract": "Structs.sol:Structs",
								"label": "id_libro",
								"offset": 0,
								"slot": "2",
								"type": "t_uint256"
							},
							{
								"astId": 9,
								"contract": "Structs.sol:Structs",
								"label": "autor",
								"offset": 0,
								"slot": "3",
								"type": "t_string_storage"
							}
						],
						"numberOfBytes": "128"
					},
					"t_uint256": {
						"encoding": "inplace",
						"label": "uint256",
						"numberOfBytes": "32"
					}
				}
			},
			"userdoc": {
				"kind": "user",
				"methods": {},
				"version": 1
			}
		}
	}
}